{
  "address": "0xB047927A42C33219F06aFfb4D69DFEc24Fd58fe1",
  "abi": [
    {
      "inputs": [
        {
          "internalType": "address",
          "name": "_priceOracle",
          "type": "address"
        },
        {
          "internalType": "address",
          "name": "_token",
          "type": "address"
        }
      ],
      "stateMutability": "nonpayable",
      "type": "constructor"
    },
    {
      "inputs": [],
      "name": "decimals",
      "outputs": [
        {
          "internalType": "uint8",
          "name": "",
          "type": "uint8"
        }
      ],
      "stateMutability": "pure",
      "type": "function"
    },
    {
      "inputs": [],
      "name": "latestAnswer",
      "outputs": [
        {
          "internalType": "int256",
          "name": "",
          "type": "int256"
        }
      ],
      "stateMutability": "view",
      "type": "function"
    }
  ],
  "transactionHash": "0x49d71ce39ea894b6122bf5eb62aa5199eae88a730e4bdbfc25da762b3b191c18",
  "args": [
    "0x2300221C0719748D6322F24444e938C8873eb200",
    "0x47f65a2Bc9C23587102aB3Ba65772e5481406237"
  ],
  "numDeployments": 1,
  "solcInputHash": "4b1beb8c01c8eb552514c7046db559d4",
  "bytecode": "0x608060405234801561001057600080fd5b5060405161021338038061021383398101604081905261002f9161007c565b600080546001600160a01b039384166001600160a01b031991821617909155600180549290931691161790556100af565b80516001600160a01b038116811461007757600080fd5b919050565b6000806040838503121561008f57600080fd5b61009883610060565b91506100a660208401610060565b90509250929050565b610155806100be6000396000f3fe608060405234801561001057600080fd5b50600436106100365760003560e01c8063313ce5671461003b57806350d25bcd1461004f575b600080fd5b604051600881526020015b60405180910390f35b610057610065565b604051908152602001610046565b600080546001546040517f41976e0900000000000000000000000000000000000000000000000000000000815273ffffffffffffffffffffffffffffffffffffffff9182166004820152839291909116906341976e0990602401602060405180830381865afa1580156100dc573d6000803e3d6000fd5b505050506040513d601f19601f820116820180604052508101906101009190610106565b92915050565b60006020828403121561011857600080fd5b505191905056fea26469706673582212205af5a0d1ec4d7d0ff0087d299d36bc47ceaf2a74288fd68a324b73ac8536e27464736f6c634300080a0033",
  "devdoc": {
    "kind": "dev",
    "methods": {},
    "version": 1
  },
  "userdoc": {
    "kind": "user",
    "methods": {},
    "version": 1
  },
  "storageLayout": {
    "storage": [
      {
        "astId": 26,
        "contract": "contracts/PriceAggregator.sol:PriceAggregator",
        "label": "priceOracle",
        "offset": 0,
        "slot": "0",
        "type": "t_contract(IPriceOracle)17"
      },
      {
        "astId": 28,
        "contract": "contracts/PriceAggregator.sol:PriceAggregator",
        "label": "token",
        "offset": 0,
        "slot": "1",
        "type": "t_address"
      }
    ],
    "types": {
      "t_address": {
        "encoding": "inplace",
        "label": "address",
        "numberOfBytes": "20"
      },
      "t_contract(IPriceOracle)17": {
        "encoding": "inplace",
        "label": "contract IPriceOracle",
        "numberOfBytes": "20"
      }
    }
  }
}