{
  "address": "0xa2654635760134575b32B32Fb115bAe74f230Fa3",
  "abi": [
    {
      "inputs": [
        {
          "internalType": "address",
          "name": "_priceOracle",
          "type": "address"
        },
        {
          "internalType": "address",
          "name": "_token",
          "type": "address"
        }
      ],
      "stateMutability": "nonpayable",
      "type": "constructor"
    },
    {
      "inputs": [],
      "name": "latestAnswer",
      "outputs": [
        {
          "internalType": "int256",
          "name": "",
          "type": "int256"
        }
      ],
      "stateMutability": "view",
      "type": "function"
    }
  ],
  "transactionHash": "0x86d7ca6c3fa51e9f47b0b2e9f0f57e998805a17896ec6764af8dc5d71c7a5a44",
  "args": [
    "0x2300221C0719748D6322F24444e938C8873eb200",
    "0xB759a0fbc1dA517aF257D5Cf039aB4D86dFB3b94"
  ],
  "numDeployments": 1,
  "solcInputHash": "dcc5a372ae4b7f0a4b282015bb4420eb",
  "bytecode": "0x608060405234801561001057600080fd5b506040516101ef3803806101ef83398101604081905261002f9161007c565b600080546001600160a01b039384166001600160a01b031991821617909155600180549290931691161790556100af565b80516001600160a01b038116811461007757600080fd5b919050565b6000806040838503121561008f57600080fd5b61009883610060565b91506100a660208401610060565b90509250929050565b610131806100be6000396000f3fe6080604052348015600f57600080fd5b506004361060285760003560e01c806350d25bcd14602d575b600080fd5b60336045565b60405190815260200160405180910390f35b600080546001546040517f41976e0900000000000000000000000000000000000000000000000000000000815273ffffffffffffffffffffffffffffffffffffffff9182166004820152839291909116906341976e0990602401602060405180830381865afa15801560bb573d6000803e3d6000fd5b505050506040513d601f19601f8201168201806040525081019060dd919060e3565b92915050565b60006020828403121560f457600080fd5b505191905056fea2646970667358221220227f1baf6b5eee0902af1fd4bb378bc7c7378d92bd2657d1a7ce11c740f70bd464736f6c634300080a0033",
  "devdoc": {
    "kind": "dev",
    "methods": {},
    "version": 1
  },
  "userdoc": {
    "kind": "user",
    "methods": {},
    "version": 1
  },
  "storageLayout": {
    "storage": [
      {
        "astId": 26,
        "contract": "contracts/PriceAggregator.sol:PriceAggregator",
        "label": "priceOracle",
        "offset": 0,
        "slot": "0",
        "type": "t_contract(IPriceOracle)17"
      },
      {
        "astId": 28,
        "contract": "contracts/PriceAggregator.sol:PriceAggregator",
        "label": "token",
        "offset": 0,
        "slot": "1",
        "type": "t_address"
      }
    ],
    "types": {
      "t_address": {
        "encoding": "inplace",
        "label": "address",
        "numberOfBytes": "20"
      },
      "t_contract(IPriceOracle)17": {
        "encoding": "inplace",
        "label": "contract IPriceOracle",
        "numberOfBytes": "20"
      }
    }
  }
}