{
  "address": "0x3FF55a5371D6edEfB3e813C019d5116582c803e6",
  "abi": [
    {
      "inputs": [
        {
          "internalType": "address",
          "name": "_priceOracle",
          "type": "address"
        },
        {
          "internalType": "address",
          "name": "_token",
          "type": "address"
        }
      ],
      "stateMutability": "nonpayable",
      "type": "constructor"
    },
    {
      "inputs": [],
      "name": "decimals",
      "outputs": [
        {
          "internalType": "uint256",
          "name": "",
          "type": "uint256"
        }
      ],
      "stateMutability": "pure",
      "type": "function"
    },
    {
      "inputs": [],
      "name": "latestAnswer",
      "outputs": [
        {
          "internalType": "int256",
          "name": "",
          "type": "int256"
        }
      ],
      "stateMutability": "view",
      "type": "function"
    }
  ],
  "transactionHash": "0xb6fcab554505dadf104eb881953ec1ff53dacb0e1b48593a67a7c7fb522a4754",
  "args": [
    "0x1947b853aD7bFc987D91DDB26fddEABC100C5070",
    "0x18a7FA5232B89D629832f6b6D0479567Fd748Ae7"
  ],
  "numDeployments": 1,
  "solcInputHash": "48447290e3b07878a9e16f6530c8943f",
  "bytecode": "0x608060405234801561001057600080fd5b5060405161027c38038061027c83398101604081905261002f9161007c565b600080546001600160a01b039384166001600160a01b031991821617909155600180549290931691161790556100af565b80516001600160a01b038116811461007757600080fd5b919050565b6000806040838503121561008f57600080fd5b61009883610060565b91506100a660208401610060565b90509250929050565b6101be806100be6000396000f3fe608060405234801561001057600080fd5b50600436106100365760003560e01c8063313ce5671461003b57806350d25bcd14610050575b600080fd5b60085b60405190815260200160405180910390f35b600080546001546040517f41976e0900000000000000000000000000000000000000000000000000000000815273ffffffffffffffffffffffffffffffffffffffff918216600482015261003e9392839216906341976e09906024016040805180830381865afa1580156100c8573d6000803e3d6000fd5b505050506040513d601f19601f820116820180604052508101906100ec9190610100565b5090506100fa816064610124565b91505090565b6000806040838503121561011357600080fd5b505080516020909101519092909150565b6000817fffffffffffffffffffffffffffffffffffffffffffffffffffffffffffffffff0483118215151615610183577f4e487b7100000000000000000000000000000000000000000000000000000000600052601160045260246000fd5b50029056fea2646970667358221220b9d6b1909991cd9de7524ced118a523f47213e53b9bde91651ab55b7f72e416464736f6c634300080a0033",
  "devdoc": {
    "kind": "dev",
    "methods": {},
    "version": 1
  },
  "userdoc": {
    "kind": "user",
    "methods": {},
    "version": 1
  },
  "storageLayout": {
    "storage": [
      {
        "astId": 42,
        "contract": "contracts/OraiPriceAggregator.sol:OraiPriceAggregator",
        "label": "priceOracle",
        "offset": 0,
        "slot": "0",
        "type": "t_contract(IOldPriceOracle)32"
      },
      {
        "astId": 44,
        "contract": "contracts/OraiPriceAggregator.sol:OraiPriceAggregator",
        "label": "token",
        "offset": 0,
        "slot": "1",
        "type": "t_address"
      }
    ],
    "types": {
      "t_address": {
        "encoding": "inplace",
        "label": "address",
        "numberOfBytes": "20"
      },
      "t_contract(IOldPriceOracle)32": {
        "encoding": "inplace",
        "label": "contract IOldPriceOracle",
        "numberOfBytes": "20"
      }
    }
  }
}